{"abi":[{"type":"constructor","inputs":[],"stateMutability":"nonpayable"},{"type":"function","name":"REGISTRATION_FEE","inputs":[],"outputs":[{"name":"","type":"uint256","internalType":"uint256"}],"stateMutability":"view"},{"type":"function","name":"agentExists","inputs":[{"name":"agentId","type":"uint256","internalType":"uint256"}],"outputs":[{"name":"exists","type":"bool","internalType":"bool"}],"stateMutability":"view"},{"type":"function","name":"getAgent","inputs":[{"name":"agentId","type":"uint256","internalType":"uint256"}],"outputs":[{"name":"agentInfo","type":"tuple","internalType":"struct IIdentityRegistry.AgentInfo","components":[{"name":"agentId","type":"uint256","internalType":"uint256"},{"name":"agentDomain","type":"string","internalType":"string"},{"name":"agentAddress","type":"address","internalType":"address"}]}],"stateMutability":"view"},{"type":"function","name":"getAgentCount","inputs":[],"outputs":[{"name":"count","type":"uint256","internalType":"uint256"}],"stateMutability":"view"},{"type":"function","name":"newAgent","inputs":[{"name":"agentDomain","type":"string","internalType":"string"},{"name":"agentAddress","type":"address","internalType":"address"}],"outputs":[{"name":"agentId","type":"uint256","internalType":"uint256"}],"stateMutability":"payable"},{"type":"function","name":"owner","inputs":[],"outputs":[{"name":"","type":"address","internalType":"address"}],"stateMutability":"view"},{"type":"function","name":"renounceOwnership","inputs":[],"outputs":[],"stateMutability":"nonpayable"},{"type":"function","name":"resolveByAddress","inputs":[{"name":"agentAddress","type":"address","internalType":"address"}],"outputs":[{"name":"agentInfo","type":"tuple","internalType":"struct IIdentityRegistry.AgentInfo","components":[{"name":"agentId","type":"uint256","internalType":"uint256"},{"name":"agentDomain","type":"string","internalType":"string"},{"name":"agentAddress","type":"address","internalType":"address"}]}],"stateMutability":"view"},{"type":"function","name":"resolveByDomain","inputs":[{"name":"agentDomain","type":"string","internalType":"string"}],"outputs":[{"name":"agentInfo","type":"tuple","internalType":"struct IIdentityRegistry.AgentInfo","components":[{"name":"agentId","type":"uint256","internalType":"uint256"},{"name":"agentDomain","type":"string","internalType":"string"},{"name":"agentAddress","type":"address","internalType":"address"}]}],"stateMutability":"view"},{"type":"function","name":"transferOwnership","inputs":[{"name":"newOwner","type":"address","internalType":"address"}],"outputs":[],"stateMutability":"nonpayable"},{"type":"function","name":"updateAgent","inputs":[{"name":"agentId","type":"uint256","internalType":"uint256"},{"name":"newAgentDomain","type":"string","internalType":"string"},{"name":"newAgentAddress","type":"address","internalType":"address"}],"outputs":[{"name":"success","type":"bool","internalType":"bool"}],"stateMutability":"nonpayable"},{"type":"function","name":"withdraw","inputs":[],"outputs":[],"stateMutability":"nonpayable"},{"type":"event","name":"AgentRegistered","inputs":[{"name":"agentId","type":"uint256","indexed":true,"internalType":"uint256"},{"name":"agentDomain","type":"string","indexed":false,"internalType":"string"},{"name":"agentAddress","type":"address","indexed":false,"internalType":"address"}],"anonymous":false},{"type":"event","name":"AgentUpdated","inputs":[{"name":"agentId","type":"uint256","indexed":true,"internalType":"uint256"},{"name":"agentDomain","type":"string","indexed":false,"internalType":"string"},{"name":"agentAddress","type":"address","indexed":false,"internalType":"address"}],"anonymous":false},{"type":"event","name":"OwnershipTransferred","inputs":[{"name":"previousOwner","type":"address","indexed":true,"internalType":"address"},{"name":"newOwner","type":"address","indexed":true,"internalType":"address"}],"anonymous":false},{"type":"error","name":"AddressAlreadyRegistered","inputs":[]},{"type":"error","name":"AgentNotFound","inputs":[]},{"type":"error","name":"DomainAlreadyRegistered","inputs":[]},{"type":"error","name":"InsufficientFee","inputs":[]},{"type":"error","name":"InvalidAddress","inputs":[]},{"type":"error","name":"InvalidDomain","inputs":[]},{"type":"error","name":"OwnableInvalidOwner","inputs":[{"name":"owner","type":"address","internalType":"address"}]},{"type":"error","name":"OwnableUnauthorizedAccount","inputs":[{"name":"account","type":"address","internalType":"address"}]},{"type":"error","name":"UnauthorizedUpdate","inputs":[]}],"bytecode":{"object":"0x608060405234801561000f575f80fd5b50338061003557604051631e4fbdf760e01b81525f600482015260240160405180910390fd5b61003e81610048565b5060018055610097565b5f80546001600160a01b038381166001600160a01b0319831681178455604051919092169283917f8be0079c531659141344cd1fd0a4f28419497f9722a3daafe3b4186f6b6457e09190a35050565b6110fd806100a45f395ff3fe6080604052600436106100a5575f3560e01c8063715018a611610062578063715018a61461017d57806378ddad12146101915780638da5cb5b146101b057806391cab63e146101d6578063de99f157146101ea578063f2fde38b14610217575f80fd5b80630c638107146100a95780632de5aaf7146100de5780633bfbbad7146100fd5780633ccfd60b1461012c5780634750d0fa1461014257806364b4f75114610163575b5f80fd5b3480156100b4575f80fd5b506100c86100c3366004610b3e565b610236565b6040516100d59190610b5e565b60405180910390f35b3480156100e9575f80fd5b506100c86100f8366004610bd2565b610348565b348015610108575f80fd5b5061011c610117366004610c2e565b610443565b60405190151581526020016100d5565b348015610137575f80fd5b50610140610630565b005b610155610150366004610c88565b6106e3565b6040519081526020016100d5565b34801561016e575f80fd5b506101556611c37937e0800081565b348015610188575f80fd5b50610140610903565b34801561019c575f80fd5b506100c86101ab366004610cd8565b610916565b3480156101bb575f80fd5b505f546040516001600160a01b0390911681526020016100d5565b3480156101e1575f80fd5b50610155610a34565b3480156101f5575f80fd5b5061011c610204366004610bd2565b5f90815260026020526040902054151590565b348015610222575f80fd5b50610140610231366004610b3e565b610a48565b61023e610b00565b6001600160a01b0382165f90815260046020526040812054908190036102775760405163e93ba22360e01b815260040160405180910390fd5b60025f8281526020019081526020015f206040518060600160405290815f82015481526020016001820180546102ac90610d17565b80601f01602080910402602001604051908101604052809291908181526020018280546102d890610d17565b80156103235780601f106102fa57610100808354040283529160200191610323565b820191905f5260205f20905b81548152906001019060200180831161030657829003601f168201915b5050509183525050600291909101546001600160a01b03166020909101529392505050565b610350610b00565b60025f8381526020019081526020015f206040518060600160405290815f820154815260200160018201805461038590610d17565b80601f01602080910402602001604051908101604052809291908181526020018280546103b190610d17565b80156103fc5780601f106103d3576101008083540402835291602001916103fc565b820191905f5260205f20905b8154815290600101906020018083116103df57829003601f168201915b5050509183525050600291909101546001600160a01b031660209091015280519091505f0361043e5760405163e93ba22360e01b815260040160405180910390fd5b919050565b5f848152600260205260408120805482036104715760405163e93ba22360e01b815260040160405180910390fd5b60028101546001600160a01b0316331461049e57604051634f1f214760e01b815260040160405180910390fd5b83158015906001600160a01b0385161515906104f457600387876040516104c6929190610d4f565b9081526020016040518091039020545f146104f457604051637b857a6b60e01b815260040160405180910390fd5b8015610530576001600160a01b0385165f9081526004602052604090205415610530576040516316a163b960e11b815260040160405180910390fd5b811561058f576003836001016040516105499190610d5e565b9081526040519081900360200190205f90556001830161056a878983610e30565b50876003888860405161057e929190610d4f565b908152604051908190036020019020555b80156105d4576002830180546001600160a01b039081165f9081526004602052604080822082905583546001600160a01b031916928916928317909355908152208890555b600283015460405189917f1b37db56c92268433e33fda6783791cb9e5f8ffababd3952ab40716443f1bf899161061a9160018801916001600160a01b0390911690610eea565b60405180910390a2506001979650505050505050565b610638610a85565b475f61064b5f546001600160a01b031690565b6001600160a01b0316826040515f6040518083038185875af1925050503d805f8114610692576040519150601f19603f3d011682016040523d82523d5f602084013e610697565b606091505b50509050806106df5760405162461bcd60e51b815260206004820152600f60248201526e151c985b9cd9995c8819985a5b1959608a1b60448201526064015b60405180910390fd5b5050565b5f6611c37937e08000341461070a5760405162976f7560e21b815260040160405180910390fd5b5f83900361072b576040516375893cc160e11b815260040160405180910390fd5b6001600160a01b0382166107525760405163e6c4247b60e01b815260040160405180910390fd5b60038484604051610764929190610d4f565b9081526020016040518091039020545f1461079257604051637b857a6b60e01b815260040160405180910390fd5b6001600160a01b0382165f90815260046020526040902054156107c8576040516316a163b960e11b815260040160405180910390fd5b60018054905f6107d783610f96565b919050559050604051806060016040528082815260200185858080601f0160208091040260200160405190810160405280939291908181526020018383808284375f9201829052509385525050506001600160a01b0385166020928301528381526002825260409020825181559082015160018201906108579082610fae565b5060409182015160029190910180546001600160a01b0319166001600160a01b039092169190911790555181906003906108949087908790610d4f565b9081526040805160209281900383018120939093556001600160a01b0385165f9081526004909252902082905581907faef1fcdf962a03943b677ae3b92ef1b34c972aeef794ed6e9ba5f599b461883b906108f49087908790879061106e565b60405180910390a29392505050565b61090b610a85565b6109145f610ab1565b565b61091e610b00565b5f60038484604051610931929190610d4f565b9081526020016040518091039020549050805f036109625760405163e93ba22360e01b815260040160405180910390fd5b60025f8281526020019081526020015f206040518060600160405290815f820154815260200160018201805461099790610d17565b80601f01602080910402602001604051908101604052809291908181526020018280546109c390610d17565b8015610a0e5780601f106109e557610100808354040283529160200191610a0e565b820191905f5260205f20905b8154815290600101906020018083116109f157829003601f168201915b5050509183525050600291909101546001600160a01b0316602090910152949350505050565b5f60018054610a4391906110ae565b905090565b610a50610a85565b6001600160a01b038116610a7957604051631e4fbdf760e01b81525f60048201526024016106d6565b610a8281610ab1565b50565b5f546001600160a01b031633146109145760405163118cdaa760e01b81523360048201526024016106d6565b5f80546001600160a01b038381166001600160a01b0319831681178455604051919092169283917f8be0079c531659141344cd1fd0a4f28419497f9722a3daafe3b4186f6b6457e09190a35050565b60405180606001604052805f8152602001606081526020015f6001600160a01b031681525090565b80356001600160a01b038116811461043e575f80fd5b5f60208284031215610b4e575f80fd5b610b5782610b28565b9392505050565b5f60208083528351602084015260208401516060604085015280518060808601525f5b81811015610b9d5782810184015186820160a001528301610b81565b505f85820160a0015260408601516001600160a01b03811660608701529250601f01601f19169390930160a001949350505050565b5f60208284031215610be2575f80fd5b5035919050565b5f8083601f840112610bf9575f80fd5b50813567ffffffffffffffff811115610c10575f80fd5b602083019150836020828501011115610c27575f80fd5b9250929050565b5f805f8060608587031215610c41575f80fd5b84359350602085013567ffffffffffffffff811115610c5e575f80fd5b610c6a87828801610be9565b9094509250610c7d905060408601610b28565b905092959194509250565b5f805f60408486031215610c9a575f80fd5b833567ffffffffffffffff811115610cb0575f80fd5b610cbc86828701610be9565b9094509250610ccf905060208501610b28565b90509250925092565b5f8060208385031215610ce9575f80fd5b823567ffffffffffffffff811115610cff575f80fd5b610d0b85828601610be9565b90969095509350505050565b600181811c90821680610d2b57607f821691505b602082108103610d4957634e487b7160e01b5f52602260045260245ffd5b50919050565b818382375f9101908152919050565b5f808354610d6b81610d17565b60018281168015610d835760018114610d9857610dc4565b60ff1984168752821515830287019450610dc4565b875f526020805f205f5b85811015610dbb5781548a820152908401908201610da2565b50505082870194505b50929695505050505050565b634e487b7160e01b5f52604160045260245ffd5b601f821115610e2b57805f5260205f20601f840160051c81016020851015610e095750805b601f840160051c820191505b81811015610e28575f8155600101610e15565b50505b505050565b67ffffffffffffffff831115610e4857610e48610dd0565b610e5c83610e568354610d17565b83610de4565b5f601f841160018114610e8d575f8515610e765750838201355b5f19600387901b1c1916600186901b178355610e28565b5f83815260208120601f198716915b82811015610ebc5786850135825560209485019460019092019101610e9c565b5086821015610ed8575f1960f88860031b161c19848701351681555b505060018560011b0183555050505050565b604081525f808454610efb81610d17565b806040860152606060018084165f8114610f1c5760018114610f3857610f67565b60ff1985166060890152606084151560051b8901019550610f67565b895f526020805f205f5b86811015610f5d5781548b8201870152908401908201610f42565b8a01606001975050505b505050506001600160a01b0385166020850152509050610b57565b634e487b7160e01b5f52601160045260245ffd5b5f60018201610fa757610fa7610f82565b5060010190565b815167ffffffffffffffff811115610fc857610fc8610dd0565b610fdc81610fd68454610d17565b84610de4565b602080601f83116001811461100f575f8415610ff85750858301515b5f19600386901b1c1916600185901b178555611066565b5f85815260208120601f198616915b8281101561103d5788860151825594840194600190910190840161101e565b508582101561105a57878501515f19600388901b60f8161c191681555b505060018460011b0185555b505050505050565b60408152826040820152828460608301375f60608483018101919091526001600160a01b03929092166020820152601f909201601f191690910101919050565b818103818111156110c1576110c1610f82565b9291505056fea2646970667358221220f20e35c881e0a3e3647597a6f1cf9c4d4e561cedd65378b1bf13cb14f547746164736f6c63430008180033","linkReferences":{}},"methodIdentifiers":{"REGISTRATION_FEE()":"64b4f751","agentExists(uint256)":"de99f157","getAgent(uint256)":"2de5aaf7","getAgentCount()":"91cab63e","newAgent(string,address)":"4750d0fa","owner()":"8da5cb5b","renounceOwnership()":"715018a6","resolveByAddress(address)":"0c638107","resolveByDomain(string)":"78ddad12","transferOwnership(address)":"f2fde38b","updateAgent(uint256,string,address)":"3bfbbad7","withdraw()":"3ccfd60b"},"id":21}